:020000040800F2
:10000000F80E002029020008510E00089906000889
:100010000D0E0008F5020008ED25000800000000A4
:10002000000000000000000000000000271700088A
:100030006103000800000000211500086D19000888
:10004000430200084302000843020008430200087C
:10005000430200084302000843020008430200086C
:10006000430200084302000843020008430200085C
:10007000430200084302000843020008430200084C
:10008000430200084302000843020008430200083C
:10009000430200084302000843020008430200082C
:1000A000D91900084302000843020008430200086F
:1000B00043020008CD1B0008FD1C00084302000895
:1000C00043020008430200084302000843020008FC
:1000D00043020008292000085521000843020008B7
:1000E00065030008430200084302000843020008B9
:1000F00043020008430200084302000843020008CC
:1001000043020008430200084302000843020008BB
:1001100043020008D11F0008191D0008430200080F
:10012000430200084302000843020008430200089B
:10013000430200084302000843020008430200088B
:10014000430200084302000843020008430200087B
:10015000430200084302000843020008430200086B
:10016000430200084302000843020008430200085B
:10017000430200084302000843020008430200084B
:10018000430200084302000800F002F800F03CF8C7
:100190000AA090E8000C82448344AAF10107DA45E2
:1001A00001D100F031F8AFF2090EBAE80F0013F0F8
:1001B000010F18BFFB1A43F0010318472468000021
:1001C00044680000103A24BF78C878C1FAD85207B2
:1001D00024BF30C830C144BF04680C6070470000C1
:1001E0000023002400250026103A28BF78C1FBD840
:1001F000520728BF30C148BF0B6070471FB504F0DD
:100200003AFC1FBD10B510BD00F046F81146FFF7CF
:10021000F5FF03F0C9F800F064F803B4FFF7F2FF4C
:1002200003BC02F0E1FE000009488047094800478E
:10023000FEE7FEE7FEE7FEE7FEE7FEE7FEE7FEE796
:10024000FEE7FEE704480549054A064B70470000F3
:100250007119000889010008F8080020F80E002034
:10026000F80A0020F80A002070477047704770476E
:10027000704710B500F00CF8006810BD10B50446CA
:1002800000F006F8046010BD004870479808002090
:1002900000487047980800207546FFF7F5FFAE4606
:1002A00005006946534620F00700854618B020B582
:1002B000FFF7C8FFBDE820404FF000064FF00007F1
:1002C0004FF000084FF0000B21F00701AC46ACE8FE
:1002D000C009ACE8C009ACE8C009ACE8C0098D466B
:1002E000704710B50446AFF300802046BDE81040CB
:1002F000FFF793BF00BFFEE718B90021064A11605F
:1003000008E0012803D10121034A116002E0002125
:10031000014A116070470000840243420E480068A1
:1003200040F040000C4908600C48006840F00400B0
:100330000A490860081D0068091D0860081D00685A
:1003400040F00C00091D0860081D006840F008001E
:10035000091D086070470000303802400018024054
:100360007047000010B50020174908701748006852
:10037000164914390968084020B34FF4E06000F0D2
:1003800025FD002415E0104800784006000E0E49B7
:1003900008700F480068097808430B49087000206E
:1003A0000C49C1F89C020120094968310860601CB1
:1003B000C4B2072CE7DB054800680449086002481E
:1003C00000F04AFC10BD0000A5000020143C0140D4
:1003D0003402424200004242F0B50A4600210023A6
:1003E000002400BF3DE0012505FA01F3156805EA88
:1003F00003049C4234D105684F000326BE40B54338
:10040000056015794E00B5400668354305601579DD
:10041000012D02D01579022D16D185684F000326D3
:10042000BE40B543856055794E00B540866835437A
:100430008560456801268E40B543456045689679DC
:100440008E40B6B235434560C5684F000326BE40B6
:10045000B543C560D5794E00B540C6683543C56023
:10046000491C1029BFD3F0BDF0B5002300244D076F
:10047000ED0E02FA05F3CE1000F1200555F82650D6
:100480004E07F70E0F26BE40B543CF1000F12006F1
:1004900046F82750CE1000F1200555F8265045EAC1
:1004A0000304CE1000F1200545F82640F0BD0246B9
:1004B000002013690B400BB1012000E000207047C1
:1004C00041837047018370470AB1018300E0418393
:1004D000704700000EB50121102001F059F80121EC
:1004E000202001F055F80320019001208DF808002C
:1004F0008DF80A0003208DF8090001208DF80B000B
:1005000001A91148FFF768FF03210F48FFF7DAFF41
:1005100001200E4BAA22982100900D4803F024FCE4
:1005200001200A4BAA2298210090094803F01CFCE4
:100530000849074802F01EFF07490870E7200749ED
:100540000870002048700EBD0014024055000020C5
:1005500060000020F80700205400002078080020E8
:10056000FEB5012500200090019002900026002792
:10057000424A9821424803F04AFC00BF3F480078B5
:1005800000F001003F4908703C480078C0F340008B
:1005900048703A480078C0F3800088703748007887
:1005A000C0F3C000C87035480078C0F3001008716F
:1005B00032480078C0F34010487130480078C0F3EA
:1005C000801088712D480078C009C87100BF0024D0
:1005D0000FE02C48015D0246601C105C814201D096
:1005E000681CC5B21DF80500401CC0B20DF805001E
:1005F000641C072CEDD39DF80100401CC0B28DF89F
:10060000010000240AE020480078204100F00100A9
:1006100010B1701CC6B200E002E0641C082CF2D3DA
:1006200000BF00240AE018480078A04000F08000D5
:1006300010B1781CC7B200E002E0641C082CF2D3B1
:1006400000BF10480078012807D1032D05D19DF87F
:100650000110891B48B203F04FF99DF80100801B7F
:1006600008D19DF80300C01B04D19FED080B06487C
:1006700080ED020B9FED070AFEBD00005E0000202A
:1006800060000020560000207808002000000000D4
:10069000000000000000000000BFFEE70F480068F7
:1006A00040F010000D4908600D48006840F0A0407F
:1006B0000B4908600846406848600846806840F07A
:1006C000204088600846C06840F0A040C860012013
:1006D000044908600449C1F8B80270473038024044
:1006E00000100240BC02424200004242144800682E
:1006F00040F0110012490860124800681149086072
:100700000846406848600846806840F47070886019
:100710000846C06840F4A070C8600B4800680A49E9
:1007200008600846406848600846806840F003005A
:1007300088600846C06840F00200C860704700004A
:1007400030380240001002400000024011480068AA
:1007500040F020000F4908600F48006840F4A010E6
:100760000D490860081D0068091D0860081D006823
:1007700040F47010091D0860081D006840F4A010C6
:10078000091D08600120054908600549C1F8A80253
:10079000704700003038024000140240A4824242F8
:1007A0000080424210B52DED048B0446B0EE408A25
:1007B000F0EE608AB0EE419AF0EE619A94ED001B83
:1007C000B0EE410AF0EE610A53EC182B51EC100B1D
:1007D00003F0AEFD04D2B0EE480AF0EE680A01E084
:1007E00094ED000B84ED000B94ED001BB0EE410A7C
:1007F000F0EE610A53EC192B51EC100B03F0D2FE12
:1008000004D2B0EE490AF0EE690A01E094ED000B63
:1008100084ED000BBDEC048B10BD90ED001AB4EE1E
:10082000C01AF1EE10FA02D2B0EE401A01E090EDDB
:10083000001A80ED001A90ED001AB4EEE01AF1EE05
:1008400010FA02DDB0EE601A01E090ED001A80EDC2
:10085000001A704770B505460C46002D07DD0020D4
:100860001849086001201849C1F89C0206E00120DF
:100870001449086000201449C1F89C02284603F07E
:1008800033F806463146114801F046FB002C08DDDE
:1008900001200C49091D086000200B49C1F8A00285
:1008A00007E000200749091D086001200649C1F83A
:1008B000A002204603F018F806463146034801F02E
:1008C0002DFB70BD940243420000434200040140EE
:1008D00010B500200E4908600E48006820F0300076
:1008E0000C4908600846006840F0100008600020CD
:1008F0000949C1F8880200F011F801200449086094
:1009000000F00CF800200449C1F8840210BD00007A
:1009100084024142000802400000414210B502201A
:1009200002F0D8FB10BD000010B500200E49086091
:100930000E48006820F030000C4908600846006846
:1009400040F01000086001200949C1F88802FFF753
:10095000E5FF012004490860FFF7E0FF002004499B
:10096000C1F8840210BD0000840241420008024028
:100970000000414270B5054600241548006820F08B
:10098000300013490860084600680860002614E03B
:10099000002010490860FFF7C1FF01200E49C1F88F
:1009A00084026006040E0B487C38006808B1601CA5
:1009B000C4B2FFF7B3FF701CC6B2082EE8DB15B94E
:1009C000FFF7B2FF01E0FFF783FF204670BD000094
:1009D00000080240840241420000414270B50446D2
:1009E0001248006820F0300010490860084600688E
:1009F00040F01000086000200D490860002512E05A
:100A0000E0090B49091D08606006040E0120094930
:100A1000C1F88402FFF782FF002005490860FFF754
:100A20007DFF681CC5B2082DEADB70BD00080240DE
:100A3000840241420000414210B50E48006820F097
:100A400030000C4908600846006840F0100008605B
:100A50000120094908600949C1F88402FFF75EFFD7
:100A6000002005490860FFF759FF00200349C1F83D
:100A7000840210BD00080240880241420000414249
:100A800010B50E48006820F030000C490860084698
:100A9000006840F01000086000200949086009491A
:100AA000C1F88802FFF73AFF0120054908600549AF
:100AB000C1F88802FFF732FF10BD000000080240B5
:100AC000840241420000414210B5002413480068EE
:100AD00020F03000114908600846006808600120D5
:100AE0000F490860FFF71AFF01200E49C1F8840280
:100AF000FFF714FF07E0601CC4B2FA2C03DDFFF718
:100B0000BFFF012010BD0648803800680028F2D1E0
:100B10000349091F086000BFF4E700000008024015
:100B200088024142000041422DE9F04106460F464D
:100B300014461D46FFF780FF002141EA4601C8B276
:100B4000FFF74CFFFFF7C0FF20B1FFF799FF01202F
:100B5000BDE8F0813846FFF741FFFFF7B5FFFFF72B
:100B60006BFF012101EB4601C8B2FFF737FFFFF72A
:100B7000ABFF0DE0012C04D10020FFF7FBFE287035
:100B800003E00120FFF7F6FE2870601EC4B26D1C62
:100B9000002CEFD1FFF774FF0020D9E72DE9F041D9
:100BA00005460E4617469846FFF746FF002141EAE4
:100BB0004501C8B2FFF712FFFFF786FF20B1FFF72C
:100BC0005FFF0120BDE8F0813046FFF707FFFFF728
:100BD0007BFF00240CE018F80400FFF7FFFEFFF78E
:100BE00073FF18B1FFF74CFF0120EBE7601CC4B2A4
:100BF000BC42F0DBFFF744FF0020E3E7F0B50B4613
:100C0000002400260F250021114F3F684FF0070CEC
:100C1000ACEB1727FCB2C4F10407FEB2254103FA7E
:100C200006F7F9B202EA050739430F07390E094FF3
:100C3000395400F01F0C012707FA0CF74FEA601C2B
:100C40004FEA8C0C0CF1E02CCCF80071F0BD0000E8
:100C50000CED00E000E400E0017840391C293FD2AF
:100C6000DFE801F032353B383E3E3E3E26292F2C50
:100C70003E3E3E3E1A1D23203E3E3E3E0E111714C0
:100C8000012101702FE0022101702CE0032101708D
:100C900029E00421017026E00521017023E00621EE
:100CA000017020E0072101701DE0082101701AE0A9
:100CB0000921017017E00A21017014E00B21017075
:100CC00011E00C2101700EE00D2101700BE00E21EE
:100CD000017008E00F21017005E01021017002E0B1
:100CE0000021017000BF00BF7047000010B52F4801
:100CF000006840F010002D4908602D4800682C491C
:100D000008600846406848600846806840F04060D7
:100D100088600846C06840F08060C8600846006887
:100D2000244908432249086008464068486008464C
:100D30008068214908431E4988600846C0681D49EB
:100D400008431B49C86019481430006840F48040CB
:100D50001649143108601948406940F040011748AD
:100D600041611748006840F4005015490860144874
:100D70000C30006840F4005011490C310860012229
:100D800011462820FFF73AFF00200E490860012095
:100D90000D49C1F8A4020B49083908600A49C1F895
:100DA000AC0240F2024000F011F810BD30380240B1
:100DB000001002400040440000C0CC000038014058
:100DC000003C0140A40242420000424200220D4B7E
:100DD0001A6000210FE000F001020A4B083B1A6084
:100DE0000022094BC3F89C220122064B103B1A60DB
:100DF00040104A1CD1B20C29EDDB0122014B1A60D4
:100E000070470000AC0242420000424200BFFEE7D1
:100E10000D48006840F040000B4908600B4800682E
:100E200040F4AA3009490860081D0068091D0860DF
:100E3000081D006840F47F30091D0860081D006827
:100E4000091D086070470000303802400018024059
:100E50007047000070B5002100230F22C4781CB336
:100E6000174C246804F4E064C4F5E064C4F307217B
:100E7000C1F10404E3B20A4144789C40E1B28478B1
:100E8000144021430C07210E0E4C0578615504785F
:100E900004F01F050124AC4005786D11AD0005F18B
:100EA000E025C5F8004109E0047804F01F0501249D
:100EB000AC40054D0678761145F8264070BD00001F
:100EC0000CED00E000E400E080E100E002490143B5
:100ED000024A1160704700000000FA050CED00E0C6
:100EE00070B500240CE0002506E00020074901EB66
:100EF000C5010855681CC5B2802DF6DB601CC4B264
:100F0000082CF0DB00F000F970BD00005E0300204B
:100F1000F0B514460B46CF1701EB5777C7F3C7025E
:100F2000CF1701EB5777FF10A1EBC707FEB20123E4
:100F3000B340DDB24CB1134B03EBC0039B5C2B43BE
:100F4000104F07EBC007BB541AE00E4B03EBC00376
:100F50009B5CDB430B4F07EBC007BB54094B03EB18
:100F6000C0039B5C2B43074F07EBC007BB54054BEB
:100F700003EBC0039B5CDB43024F07EBC007BB5492
:100F8000F0BD00005E0300201CB50121182000F018
:100F9000FFFA4FF4A060009001208DF804000020BB
:100FA0008DF8060003208DF8050001208DF807005C
:100FB00069464D48FFF710FA4FF480614A48FFF741
:100FC00081FA4FF4AA40009001208DF8040000201F
:100FD0008DF8060003208DF8050001208DF807002C
:100FE00069464248FFF7F8F94FF480513F48FFF750
:100FF00067FAC82002F052F84FF480513B48FFF7DF
:1010000061FA0021AE2000F0F5F90021084600F059
:10101000F1F90021102000F0EDF90021402000F04E
:10102000E9F90021812000F0E5F90021CF2000F04E
:10103000E1F90021A12000F0DDF90021C82000F035
:10104000D9F90021A62000F0D5F90021A82000F050
:10105000D1F900213F2000F0CDF90021D32000F08C
:10106000C9F90021084600F0C5F90021D52000F09B
:10107000C1F90021802000F0BDF90021D92000F045
:10108000B9F90021F12000F0B5F90021DA2000F0D3
:10109000B1F90021122000F0ADF90021DB2000F0B1
:1010A000A9F90021402000F0A5F90021202000F03E
:1010B000A1F90021022000F09DF900218D2000F00F
:1010C00099F90021142000F095F90021A42000F0E6
:1010D00091F90021A62000F08DF9FFF701FF002112
:1010E000AF2000F087F91CBD000C02400010024048
:1010F00010B50246012000E050430B1EA1F101048F
:10110000E1B2F9D110BD000070B500241CE004F17B
:10111000B001C8B2002100F06DF90021084600F0CE
:1011200069F90021102000F065F9002508E0084960
:1011300001EBC501085D012100F05CF9681CC5B236
:10114000802DF4DB601CC4B2082CE0DB70BD000015
:101150005E0300202DE9FE4F0746884692461C4656
:101160000197CDF80080082C02D14FF006091FE04E
:101170002046E31704EB5373DB1021464FEAE47C6F
:1011800004EB5C7C4FEAEC0CA4EBCC0CBCF1000F44
:1011900002D04FF0010C01E04FF0000C63442246F6
:1011A00004EBD27C4FEA6C0C03FB0CF303F0FF0959
:1011B000AAF12000C6B200255EE0082C07D106EB9C
:1011C00046002F4901EB400010F805B01DE00C2C43
:1011D00007D106EB46002B4901EB800010F805B063
:1011E00013E0102C05D1284800EB061010F805B0CC
:1011F0000BE0182C07D106EBC600244901EB800058
:1012000010F805B001E0BDE8FE8F002002901CE060
:101210000BF0010028B1414638460C9AFFF778FEE2
:1012200009E00C9808B9012000E000200246414680
:101230003846FFF76DFE4FEA6B0B08F1010000F036
:10124000FF080298401CC0B2029002980828DFDB19
:10125000781CC7B2082C0BD004EBD4714A1001994A
:10126000791A8A4204D1019F00980830C0B20090D8
:10127000DDF80080681CC5B24D459EDB00BFC2E7AB
:101280008A4A0008B24C0008265100081657000888
:101290002DE9FF4F2DED020B83B0064617461C4685
:1012A000129D4FF00009082C01D14FF00209B5EE54
:1012B000C00AF1EE10FA07DB2346202200953046E3
:1012C0000699FFF747FF0AE0F1EE400AB0EE600A28
:1012D00023462D22009530460699FFF73BFFDFEDB0
:1012E000210A60EE200AFDEEE00A10EE908A6420EA
:1012F00098FBF0FA98FBF0F100FB11804FFA80FBAD
:10130000CDE9004504EBD47109EB61013144C8B269
:10131000F91ECBB252460294069900F025F804EB70
:10132000D47109EB6102B91E01FB0261C8B2234608
:101330002E22009502940699FFF70CFFCDE9004597
:1013400004EBD47109EB6102791E01FB0261C8B2A2
:1013500002235A460294069900F006F809B0BDE847
:10136000F08F00000000C8422DE9FF4F82B0064612
:1013700091461F46DDE90F4A4FF0000B082C01D1C2
:101380004FF0020B002530E0781B401EC1B20A204E
:10139000FFF7AEFEB9FBF0F00A21B0FBF1F201FB62
:1013A0001208B8F1000F0ED104EBD4710BEB610100
:1013B00001FB0561C8B223463022CDE900A40399A0
:1013C000FFF7C8FE0FE004EBD4710BEB610101FBEA
:1013D0000561C8B208F13001CAB22346CDE900A4C4
:1013E0000399FFF7B7FE681CC5B2BD42CCDB06B05F
:1013F000BDE8F08F70B504460E462EB14FF4806103
:101400001C48FFF75FF804E04FF480611948FFF7CC
:1014100057F84FF480711748FFF752F800251BE08A
:101420004FF480711448FFF74BF804F0800028B1A6
:101430004FF480410F48FFF745F804E04FF4804136
:101440000C48FFF73DF84FF480710B48FFF73AF86E
:101450006006040E681CC5B2082DE1DB4FF48071F4
:101460000448FFF72FF84FF480610248FFF72AF88D
:1014700070BD000000100240000C0240034880EDE7
:10148000040A0348C0ED040A70470000140300205A
:101490003403002000B59FED0F0A0F4880ED000ACD
:1014A0000E4880ED000AB8EE080A0B4880ED010AEC
:1014B0000A4880ED010ABBEE0E0A074880ED020AD9
:1014C000064880ED020ADFED060A9FED050AFFF7E8
:1014D000D5FF00BD000016C4340300201403002013
:1014E0000000000041F6583302689A4201DD1A46B6
:1014F00002600A4B02689A4201DA1A46026041F61B
:1015000058330A689A4201DD1A460A60034B0A689A
:101510009A4201DA1A460A6070470000A8E4FFFF09
:101520007047000000B50146B0EE402A91ED040A74
:1015300032EE400AF0EE401A91ED060A30EE210A32
:1015400081ED060ADFED100A9FED100A01F1180087
:10155000FFF763F991ED010AD1ED060A20EE200AAA
:10156000D1ED000A00EEA10AD1ED020A91ED051AB3
:1015700031EEC11A00EE810A81ED030AC1ED051AB0
:1015800091ED030A00BD000000803B4500803BC593
:1015900029B1064A12680243044B1A6004E0034A68
:1015A00012688243014B1A607047000030380240D5
:1015B00029B1064A12680243044B1A6004E0034A48
:1015C00012688243014B1A607047000040380240A5
:1015D00029B1064A12680243044B1A6004E0034A28
:1015E00012688243014B1A60704700004438024081
:1015F000F0B5002100220024022500260223324FEC
:101600003F6807F00C0121B1042905D0082937D122
:1016100005E02E4F076036E02D4F076033E02A4F7C
:101620003F1F3F68C7F38056274F3F1F3F6807F0B3
:101630003F036EB1264FB7FBF3F7DFF88CC0ACF178
:10164000040CDCF800C0CCF3881C07FB0CF40CE0A5
:101650001E4FB7FBF3F7DFF870C0ACF1040CDCF8F9
:1016600000C0CCF3881C07FB0CF4174F3F1F3F68EA
:10167000C7F301477F1C7D00B4FBF5F7076002E06C
:10168000124F076000BF00BF0F4F3F6807F0F00127
:101690000909104F7A5C0768D74047600A4F3F68D6
:1016A00007F4E051890A0B4F7A5C4768D74087609E
:1016B000054F3F6807F46041490B064F7A5C476865
:1016C000D740C760F0BD0000083802400024F40095
:1016D00000127A000000002070B50546032D02D0EC
:1016E000042D12D108E00B4800F0F9FB04B20021F0
:1016F000084800F025FC0AE0074800F0F0FB04B2BF
:101700000021054800F01CFC01E0002400BF00BFE0
:10171000204670BD00040040000800400021018008
:10172000418081807047704710B52DED028BB0EE7F
:10173000408AB0EE480A0349034802F0FBF9BDECC9
:10174000028B10BD001800403000002010B52DEDB8
:10175000028BB0EE408AB0EE480A0349034802F01B
:10176000E9F9BDEC028B10BD0018004040000020DC
:1017700010B53648006840F002003449086033482C
:101780001030006840F040003049103108603048A7
:10179000006840F020402E490860081D0068091DBF
:1017A0000860081D006840F07040091D0860081DB1
:1017B000006840F02040091D086009220E212448DD
:1017C000FEF752FE09220F212148FEF74DFE214867
:1017D00000882049088008460088088053201D4959
:1017E0002831088044F61F60091D08601948183028
:1017F000008846F2600108431649183108801548F0
:101800002030008840F01100124920310880114832
:10181000343000680F4934310860081D0068091D24
:1018200008600C481830008840F608010843094950
:10183000183108800748008840F08000054908807A
:101840000846008840F00100088010BD3038024092
:1018500000040240001800400CB5002001900090E8
:101860003448006840F480303249086000BF314895
:10187000006800F4003000900198401C019000982E
:1018800018B90198B0F5A04FF1D12A48006800F4CA
:10189000003010B10120009001E00020009000987D
:1018A000012846D123484030006840F0805021494B
:1018B000403108602048006840F440401E490860FC
:1018C0001C48083000681B49083108600846006859
:1018D00040F4004008600846006840F4A0500860EA
:1018E0001648091F0860081F006840F08070091F33
:1018F000086000BF0F48006800F000700028F9D0B1
:1019000040F205700E4908600A480830006820F06F
:1019100003000849083108600846006840F00200EA
:10192000086000BF03480830006800F00C00082879
:10193000F8D10CBD00380240007000400854400748
:10194000003C0240042808D14FF0E021096941F031
:1019500004014FF0E022116107E04FF0E021096936
:1019600021F004014FF0E022116170477047000040
:1019700010B51548006840F470001349086013481A
:10198000006840F001001149086000200F4908314B
:1019900008600E4800680E4908400C4908600D4870
:1019A000091D0860081F006820F48020091F0860D6
:1019B000002006490C310860FFF74EFF4FF0006031
:1019C00001498039086010BD88ED00E00038024010
:1019D000FFFFF6FE1030002400B52DED028B81B024
:1019E00001212B4800F07EFAC0B30320FFF774FEFC
:1019F00000B2284908800420FFF76EFE00B2264995
:101A00000880264A2649274801F01EFD2148B0F9E2
:101A1000000000EE100AB8EEC00A2348FFF782FD6E
:101A2000BDEEC00A214880ED000A1B48B0F9000055
:101A300000EE100AB8EEC00A1D48FFF773FDBDEEB8
:101A4000C00A1C4880ED000A01461848FFF74AFD0D
:101A50001848016815480068FEF7FCFE01210C4893
:101A600000F01CFAFEF77CFD00F066FD00EE100AA7
:101A7000B8EEC00AB0EE408A0120102306221946B3
:101A800000900020FFF704FC01B0BDEC028B00BD0C
:101A90000040014014000020160000202800002013
:101AA0002400002020000020140300201800002043
:101AB000340300201C00002010B54148006840F0AD
:101AC00002003F4908603E481030006840F00200C4
:101AD0003B49103108603B48006840F420603949B8
:101AE0000860081D0068091D0860081D006840F4B2
:101AF0007060091D0860081D0068091D0860022249
:101B000004213048FEF7B0FC022205212D48FEF7E3
:101B1000ABFC2D4800882C49088000202A49283138
:101B200008804FF6FF70091D0860274808300088BC
:101B300040F0030024490831088023481830008809
:101B400040F2011108432049183108801E48203016
:101B500000881D49203108801B481830008840F05B
:101B6000310019491831088017482030008840F0AA
:101B7000010015492031088013481830008840F4CE
:101B800044501149183108800F482030008840F037
:101B900010000D49203108804FF6FE700A491031BF
:101BA0000880081F008840F00100091F08800020FD
:101BB0000549243108600121034800F075F910BD82
:101BC00030380240000402400004004010B50121FA
:101BD000044800F087F918B10121024800F061F9CA
:101BE00010BD00000004004010B54148006840F0FE
:101BF00002003F4908603E481030006840F0040091
:101C00003B49103108603B48006840F420403949A6
:101C10000860081D0068091D0860081D006840F480
:101C20007040091D0860081D0068091D0860022237
:101C300006213048FEF718FC022207212D48FEF746
:101C400013FC2D4800882C49088000202A4928319F
:101C500008804FF6FF70091D08602748083000888B
:101C600040F00300244908310880234818300088D8
:101C700040F2011108432049183108801E482030E5
:101C800000881D49203108801B481830008840F02A
:101C9000310019491831088017482030008840F079
:101CA000010015492031088013481830008840F49D
:101CB00044501149183108800F482030008840F006
:101CC00010000D49203108804FF6FE700A4910318E
:101CD0000880081F008840F00100091F08800020CC
:101CE0000549243108600121034800F0DDF810BDEA
:101CF00030380240000402400008004010B50121C5
:101D0000044800F0EFF818B10121024800F0C9F8CA
:101D100010BD00000008004010B50121094800F086
:101D2000E1F8012809D1084908700021054800F0B0
:101D3000BBF80021034800F003F90121014800F03D
:101D4000B0F810BD001000402E0000201FB500208C
:101D5000019002900390009001211020FFF728FCD1
:101D60000020ADF80C00ADF806004EF65F200290A2
:101D700042F2CF00ADF8040001A90D4800F0E2F8EE
:101D8000012211460A4800F0BEF836208DF8000006
:101D900003208DF801008DF8020001208DF803006A
:101DA0006846FFF757F80021014800F07DF81FBD95
:101DB0000010004070B504460D463548006840F0FC
:101DC00004003349086032481430006840F00200D3
:101DD0002F49143108602F48006840F420402D49F5
:101DE0000860081D0068091D0860081D006840F4AF
:101DF0007040091D0860081D006840F40050091D6E
:101E00000860032206212348FEF72EFB0322072148
:101E10002048FEF729FB204800881F490880084613
:101E2000008808801C4828300480001D05601A487E
:101E30001830008840F060001749183108800846C3
:101E4000008840F4C040088013482030008840F0EB
:101E500011001149203108800F481830008840F0E7
:101E600008000D49183108800846008840F40060D9
:101E700008800948008840F0800007490880012157
:101E8000054800F01DF80121034800F00DF870BD71
:101E9000303802400008024000040140CA43028278
:101EA0007047CA430282704721B1028842F00102A2
:101EB000028004E002884FF6FE731A4002807047E9
:101EC00031B1B0F8442042F40042A0F8442005E0CB
:101ED000B0F84420C2F30E02A0F844207047014637
:101EE000486A704730B50246002000230024158A56
:101EF00005EA0103958905EA010413B10CB101203B
:101F000000E0002030BD1AB183890B43838102E0D9
:101F100083898B4383817047416370478163704736
:101F2000012A01D141630AE0022A01D1816306E05E
:101F3000032A01D1C16302E0042A00D10164704781
:101F40004162704700220288184B98420ED0184B0D
:101F500098420BD0B0F1804F08D0164B984205D074
:101F6000154B984202D0154B984204D14FF68F730F
:101F70001A404B881A43124B984207D0114B984293
:101F800004D04FF6FF431A400B891A4302804B6876
:101F9000C3620B880385054B984202D0044B9842DC
:101FA00001D18B7A038601238382704700000140B0
:101FB000000401400004004000080040000C004004
:101FC000001000400014004000B5FEF767FB00BDA4
:101FD0000F48008800F02000C0B10E4800780128AA
:101FE00008D10B4880880B49486000200870012008
:101FF00048700BE007484078012807D104488088E2
:1020000004498860002048700120887070470000F3
:1020100000500040E0070020C0F30801014A918011
:10202000704700000050004010B540F225511A489A
:1020300000F024F910B3184800F0DAF9C4B21748D8
:10204000007840B9AA2C06D11548007818B90120AB
:10205000124908701FE01148007801280FD110487C
:1020600001780078401C0E4A10700E484454104607
:10207000007804280FDD0220084908700BE00748AB
:102080000078022807D1FF2C05D1012003490870F0
:1020900000200349087010BD001001402D000020F1
:1020A0002C0000205403002010B588B00446012104
:1020B0000846FFF76DFA01211020FFF789FA072281
:1020C00009212248FEF7D0F907220A211F48FEF70E
:1020D000CBF94FF4C060069002208DF81C008DF8FB
:1020E0001D0000208DF81E0001208DF81F0006A99C
:1020F0001648FEF771F902940020ADF80C00ADF817
:102100000E00ADF81000ADF814000C20ADF8120070
:1021100002A90F4800F002F901210D4800F0A2F8D1
:10212000012240F225510A4800F0D2F825208DF80E
:10213000040000208DF8050001208DF806008DF8C0
:10214000070001A8FEF786FE08B010BD000002409F
:102150000010014010B540F22441104800F08EF804
:1021600020B10E4800F044F9C4B215E040F2255108
:102170000A4800F083F878B1084800F039F9C4B291
:102180002146074800F034FA18B9002005490860D4
:1021900002E001200349086010BD00000044004037
:1021A000A8000020A882424210B588B00446012150
:1021B0000846FFF7EDF901214804FFF7F9F90C2073
:1021C000069002208DF81C0000208DF81E000320D0
:1021D0008DF81D0000208DF81F0006A91F48FEF78E
:1021E000FBF8072202211D48FEF73EF907220321D2
:1021F0001A48FEF739F902940020ADF80C00ADF84A
:102200000E00ADF810000C20ADF812000020ADF863
:10221000140002A9124800F081F826208DF804006D
:1022200000208DF805008DF8060001208DF80700CC
:1022300001A8FEF70FFE012240F22551084800F0E8
:1022400047F8012240F22441054800F041F80121FD
:10225000034800F007F808B010BD0000000002407D
:102260000044004021B1828942F40052828104E09E
:1022700082894DF6FF731A408281704770B502461D
:10228000002400230025002040F66A16B14200D148
:1022900000BFC1F3421501F01F03012606FA03F344
:1022A000012D02D19689334006E0022D02D1168A13
:1022B000334001E0968A33400C12012606FA04F4FA
:1022C0001688344013B10CB1012000E0002070BD2D
:1022D000F0B50346002400260025002040F66A17CA
:1022E000B94200D100BF1846C1F3421401F01F06E5
:1022F000012707FA06F5012C01D10C3004E0022C6D
:1023000001D1103000E014301AB107682F43076084
:1023100002E00768AF430760F0BD00002DE9FF470A
:1023200005460E460024A14600BFA046B08900B174
:1023300000BF2C8A24F44054F08804432C82AC89DA
:1023400041F20C608443B0883189084371890843A5
:102350000443AC81AC8A24F44074B0890443AC8259
:102360006846FFF745F92048854202D01F4885425C
:1023700002D1DDF80C9001E0DDF80890A88900F4A6
:10238000004040B109EBC90000EB09103168490079
:10239000B0FBF1F707E009EBC90000EB0910316869
:1023A0008900B0FBF1F76420B7FBF0F004012009CD
:1023B000642101FB1078A88900F4004040B132206C
:1023C00000EBC800B0FBF1F000F00700044308E0A8
:1023D000322000EB08106421B0FBF1F000F00F0098
:1023E00004432C81BDE8FF87001001400014014028
:1023F00001468888C0F308007047000030B52DED15
:10240000028B81B04648006840F00C0044490860E7
:1024100043481030006840F4801041491031086092
:102420004048006840F000703E490860081D0068A0
:10243000091D0860081D006840F04070091D086013
:10244000081D006840F08070091D0860364800686B
:1024500040F0200034490860081D0068091D08602C
:10246000081D006840F03000091D0860081D006864
:1024700040F01000091D086008220C212948FDF7D2
:10248000F3FF082202212848FDF7EEFF2748808944
:1024900040F00C00254988810846008A08820846D9
:1024A000808A88829FED220AB0EE408ABCEEC80A7C
:1024B00010EE100A84B200EE104AB8EE400A38EE70
:1024C000400AF3EE000A20EE200ABCEEC00A10EE2D
:1024D000100A85B24FF6FF7000EA0414601984B246
:1024E00008460481808940F02000888135208DF8DD
:1024F000000001208DF801008DF802008DF8030026
:102500006846FEF7A7FC0948808940F40050074957
:10251000888101200749887001B0BDEC028B30BD75
:102520003038024000080240000C024000500040D9
:1025300000B88843E007002000B5294880780128CA
:1025400019D10020264988705520FFF765FD01202C
:10255000234908700020487008468068496840EAAE
:1025600001200A21B0FBF1F000EE100AB8EE400A9B
:102570001B4880ED040A1A4890ED040A1948D0ED72
:10258000000AB4EE600AF1EE10FA04D11448007BA0
:10259000401C134908731248007B012803D11049DD
:1025A0008870002008730E4890ED040A0D4880EDF5
:1025B000000A0B4890ED040ADFED0B0AB4EEE00AC6
:1025C000F1EE10FA03DD9FED080A80ED040A0448DD
:1025D00090ED040ABDEEC00A10EE100A00B200BD74
:1025E000E0070020500000200000E14300BFFEE7AC
:1025F00010B502469088C82801DB002010BD538822
:10260000901DC1545088401CC82390FBF3F403FB79
:10261000140050809088401C90800120EEE703B4A5
:1026200001984100009850EAC12018BF04204A0DCB
:1026300018BF40F0010040F2FF72B2EB515F08BFDB
:1026400040F00200012808BF052002B070470000DA
:1026500070B5C1482DED020B2DED0E8B82B0119D92
:1026600025F000449FEDBEDB9FEDBFEB84423EDBD7
:10267000A4F140511098A1F17F6108430FD0BC48EC
:10268000844202DC28D1109830B39DED100B02B0CB
:10269000BDEC0E8B02B0BDE8704000F071BC9DED4A
:1026A000100B53EC1D2B51EC100B01F07DFE9DED3A
:1026B000100B41EC180B53EC1E2B51EC100B01F0DE
:1026C00073FE53EC182B01F0EBFB41EC100B02B046
:1026D000BDEC0E8B02B070BD0120FDF7CFFD02B046
:1026E000BDEC0E8B02B0BDE8704000F05DBCA148AF
:1026F0009FEDA18B844256DA9DED100BB4F1795F0A
:102700000ADA51EC100BFFF78AFF042808BF00F02B
:102710005BFC9DED100BDAE753EC102B51EC100B2A
:1027200001F042FE41EC190B95480621B0EE490A32
:10273000F0EE690A784400F0A7FB53EC192B51EC3A
:10274000100B01F031FE41EC1A0B8E48B0EE490A35
:10275000F0EE690A0421784400F096FB53EC192B43
:1027600051EC100B01F020FE53EC182B01F098FBFC
:1027700041EC100B51EC1A0B53EC102B01F044FC04
:10278000CDE900019DED000B53EC102B9DED100BDE
:1027900051EC100B01F008FE9DED101B53EC112BBA
:1027A00001F07EFBD2E09DED100B51EC100B00F020
:1027B000C3FD53EC182B01F02BFF9FED730BCDE9FC
:1027C000000153EC102B9DED000B51EC100B01F0B0
:1027D000EBFD41EC190B6E480621B0EE490AF0EE14
:1027E000690A784400F050FB53EC192B51EC100BA4
:1027F00001F0DAFD41EC1B0B6648B0EE490AF0EE41
:10280000690A0421784400F03FFB53EC192B51EC8A
:10281000100B01F0C9FD53EC182B01F041FB41EC0A
:102820001C0B51EC190B01F0E6F941EC180B5A485E
:102830009FED5BABA04222DC53EC1C2B51EC1B0B3D
:1028400001F0E2FBCDE900019DED000B51EC180B0E
:1028500053EC102B01F0A8FD53EC182B01F020FBDA
:1028600053EC1A2B01F0A0FD53EC1D2B01F0A8FF37
:1028700053EC1E2B01F0CCFE41EC100B5FE08DED14
:10288000008B002000909DED000B51EC180B53ECD9
:10289000102B01F005FB9DED000B41EC1E0B53ECE2
:1028A000102B51EC100B01F07FFD53EC192B01F0B4
:1028B000AFFE53EC1E2B01F0A7FB41EC190B53ECC0
:1028C0001C2B51EC1B0B01F09FFB41EC1B0B53EC41
:1028D0001A2B51EC190B01F067FD53EC1D2B01F085
:1028E00097FE41EC190B53EC1A2B51EC180B01F02D
:1028F0005BFD53EC1B2B01F057FD53EC192B01F042
:102900005FFF9DED000B41EC180B53EC1A2B51ECC3
:10291000100B01F049FD9FED249B53EC192B01F0A6
:1029200077FE41EC100B51EC180B53EC102B01F01F
:1029300047FF53EC192B01F06BFE41EC100B002DFF
:102940003FF7C5AE51EC100B01F06CFA41EC100BE7
:10295000BDE60000000000000000F03F00000000A5
:10296000075C143326A6913C182D4454FB21F93FF3
:102970000000F07F0000E03F000000000000F03F9A
:10298000B8410000C6410000000000000000E03F28
:102990000A410000184100003333EF3F00000000FF
:1029A0000000000000000040182D4454FB21E93FC6
:1029B00070B59B482DED020B2DED068B079D25F084
:1029C0000044A04218DC9748844202DC0AD10698F1
:1029D00040B19DED060BBDEC068B02B0BDE870402A
:1029E00000F0CEBA002DCCBF9FED8F0B9FED900B6A
:1029F000BDEC068B02B070BD8F48A04215DD8F483C
:102A0000A042D8BF4FF0FF3458DD9DED060B51ECCE
:102A1000100BFFF704FE042808BF00F0D5FA9DED67
:102A2000060BBDEC068B02B070BD9DED060B51ECA4
:102A3000100B00F081FCCDE9060181489FED828BEF
:102A4000A0423CDD8248A0421FDD00249FED82AB06
:102A50009DED060B53EC1A2B51EC100B01F020FAF4
:102A60009DED060B41EC190B53EC1A2B51EC100B9E
:102A700001F09AFC53EC182B01F0A2FE53EC192B39
:102A800001F0C2FACDE9060149E09DED060B0124F3
:102A900053EC182B51EC100B01F002FA9DED060BD4
:102AA00041EC190B53EC182B51EC100B01F088FE84
:102AB00053EC192B01F0A8FACDE906012FE0684884
:102AC000A0421FDD02249FED689B9DED060B53EC99
:102AD000192B51EC100B01F067FC53EC182B01F093
:102AE000DFF99DED060B41EC180B53EC192B51EC63
:102AF000100B01F065FE53EC182B01F085FACDE9BF
:102B000006010CE09DED060B032453EC102B9FED0A
:102B1000580B51EC100B01F077FACDE906019DED51
:102B2000060B53EC102B51EC100B01F03DFC41EC6B
:102B3000180B53EC182B01F037FC41EC190B4E48E5
:102B40000621B0EE490AF0EE690A784400F09CF9DB
:102B500053EC182B51EC100B01F026FC41EC180B38
:102B60004648B0EE490AF0EE690A0521784400F0C3
:102B70008BF953EC192B51EC100B01F015FC41ECC7
:102B8000100B51EC180B53EC102B002C0EDA01F04B
:102B900087F99DED061B53EC112B01F005FC9DED13
:102BA000061B53EC112B01F033FD35E001F078F9F1
:102BB0009DED061B53EC112B01F0F6FB41EC100BC5
:102BC0002F48784400EBC40090ED001B51EC100B33
:102BD00053EC112B01F0F4FD9DED061B53EC112B72
:102BE00001F0EEFD41EC100B2648784400EBC400E8
:102BF00090ED001B51EC100B53EC112B01F008FD74
:102C000041EC100B002DA2BFBDEC068B02B070BDD5
:102C100051EC100B01F006F941EC100B01E700003C
:102C2000000010440000F07F182D4454FB21F93FB0
:102C3000182D4454FB21F9BF0000DC3F0000203E6A
:102C40000000F33F00000000000000000000F03F23
:102C50000000E63F0000000000000000000000400F
:102C60000080034000000000000000000000F83F6A
:102C7000000000000000F0BF5A3E0000103E0000BF
:102C80009A3D0000523D000070B56F4E2DED040BD3
:102C90002DED048B82B0DDF824C0DDE907235C4212
:102CA0002CF000411C4341EAD474069D22F0004000
:102CB000B44205D86C422C4340EAD474B4420BD9D8
:102CC0009DED081B9DED060B02B0BDEC048B04B01E
:102CD000BDE8704000F05EB9ACF14054A4F17F64EF
:102CE0001C430BD0022404EAAC7444EAD2740543BA
:102CF0009FED578B9FED582B07D015E09DED060BF0
:102D000051EC100B00F072F942E0002C11BF012CC5
:102D10009DED060B02B0BDEC048B04BF04B070BD8A
:102D2000022C38D0032C3BD00B439FED4D1B9FED65
:102D30004E0B0AD0B14218D1B04209D121F08041E6
:102D400020F08040099107900FE0002A15DA10E08A
:102D5000474B7B44002C08BF93ED000B0DD0012C9A
:102D600010D0022C17D0032C1AD0B0421DD1002A4B
:102D700003DAB0EE410AF0EE610A02B0BDEC048B5A
:102D800004B070BD93ED000B51EC100B01F04AF84C
:102D900041EC100BF1E7B0EE480AF0EE680AECE700
:102DA000B0EE420AF0EE620AE7E7401A00159FED26
:102DB000329B3C28C8BF8DED000B17DCBCF1000F27
:102DC000BCBF10F13C0F8DED009B0FDB9DED080BA0
:102DD00053EC102B9DED060B51EC100B01F014F988
:102DE00000F0AAFA00F002F9CDE90001B4B1012C1B
:102DF00010D0022C9FED220B53EC102B9DED000BFD
:102E000051EC100B19D001F0DBFC53EC182B01F046
:102E1000D7FCBDE7019880F0004001909DED000BCC
:102E200053EC192B51EC100B01F046FA04BF0220B1
:102E3000FDF724FA9DED000B9FE701F0C1FC53EC78
:102E4000182B01F0E5FBA3E70000F07F0000000075
:102E5000182D4454FB210940182D4454FB2109C06E
:102E6000182D4454FB21F9BF182D4454FB21F93F80
:102E7000823C000000000000000000000000000094
:102E8000075C143326A6A13C70B504462DED028BD9
:102E90004D1E00EBC500B0EE408AF0EE608A90ED6A
:102EA000000B35F0060017D053EC182B51EC100B2B
:102EB00001F07AFA41EC100B6D1E04EBC50090EDA9
:102EC000001B51EC100B53EC112B00F0E9FF41EC0F
:102ED000100B35F00600E7D1022D36D0042D1CD0A2
:102EE000062D1CBFBDEC028B70BD53EC182B51ECB2
:102EF000100B01F059FA94ED0A1B53EC112B00F062
:102F0000CFFF53EC182B01F04FFA94ED081B53EC54
:102F1000112B00F0C5FF41EC100B53EC182B51ECBA
:102F2000100B01F041FA94ED061B53EC112B00F04D
:102F3000B7FF53EC182B01F037FA94ED040B53EC68
:102F4000102B00F0ADFF41EC100B53EC182B51ECA3
:102F5000100B01F029FA94ED021B53EC112B00F039
:102F60009FFF53EC182B01F01FFA94ED001B53EC5C
:102F7000112B00F095FFBDEC028B41EC100B70BDE6
:102F800010B553EC102B51EC100B00F089FF41EC05
:102F9000100B10BD10B553EC112B51EC100B00F0C1
:102FA0007FFF41EC100B10BD9FED050B10B553ECEE
:102FB000102B51EC100B01F027F841EC100B10BD59
:102FC00000000000000000009FED050B10B553EC61
:102FD000102B51EC100B01F0E7F941EC100B10BD78
:102FE000000000000000001000BF704710B541EC69
:102FF000100BFFF7DDFC51EC100B10BD2DE9F0417B
:103000000446E07800F0C006E07800F03F05607804
:1030100000F0010098B1EF102846E91705EB517157
:10302000C910A5EBC101491C01F0FF080B4800685D
:1030300020B10A48414602683846904700BF607890
:1030400000F0080030B10548406818B1B011034ADB
:10305000516888470020BDE8F08100008808002002
:1030600010B504466FF00400FEF76CFCE11704EBAA
:103070005171C1F3C701074A11701046007800EB87
:103080004001C1EBC0104FF6FF7101EAC0000249D8
:10309000088010BD100000201200002070B504460A
:1030A0004FF4077094FBF0F0C6B24FF4077094FB36
:1030B000F0F100FB114085B205E04FF4077000F01D
:1030C0002FF8701EC6B2002EF7D115B1284600F0B9
:1030D00027F870BD0146114A12784A434FF0E023A9
:1030E0005A6100229A611A46126942F001021A617D
:1030F00000BF4FF0E022106900F001021AB100F4A5
:103100008032002AF5D04FF0E022126922F001024D
:103110004FF0E0231A6100229A61704710000020EE
:103120000146114A12884A434FF0E0235A610022B7
:103130009A611A46126942F001021A6100BF4FF00B
:10314000E022106900F001021AB100F48032002A76
:10315000F5D04FF0E022126922F001024FF0E02397
:103160001A6100229A617047120000202DE9F04F89
:103170008DB00746884615469946DDE9166B002452
:10318000002030806B49887B5A4605A900F068FA18
:1031900018B1601E0DB0BDE8F08F6648807A00F06F
:1031A0001400002867D09DF8140000069DF8151043
:1031B00040EA01409DF8161040EA01209DF81710E2
:1031C000084328609DF8180000069DF8191040EA91
:1031D00001409DF81A1040EA01209DF81B10084399
:1031E00068609DF81C0000069DF81D1040EA014033
:1031F0009DF81E1040EA01209DF81F100843A860AA
:103200009DF8200000069DF8211040EA01409DF83D
:10321000221040EA01209DF823100843E86004F1E1
:103220001000C4B22868001401906868001402906D
:10323000A86800140390E8680014049001984043C3
:10324000029901FB0100039901FB0100049901FBB4
:10325000010ABAF1706F02DBBAF1885F05DD00F098
:103260005FFA00203080401E94E7B6F9000040F479
:103270008070308000BF2F48807A00F0400020B37B
:1032800005A9601C085C095D40EA012000B2A8F8AD
:10329000000005A9E01C095C05AAA01C105C41EA1D
:1032A000002000B2A8F8020005A9601D095C201DDD
:1032B000105C41EA002000B2A8F80400A01DC4B2CE
:1032C000B6F9000040F0080030801A48408900F448
:1032D000C07008B305A9601C085C095D40EA0120C4
:1032E00000B2388005A9E01C095C05AAA01C105C8E
:1032F00041EA002000B2788005A9601D095C201D0C
:10330000105C41EA002000B2B880A01DC4B2B6F93A
:10331000000040F0700030800648807A00F0030022
:1033200018B105A90819FFF769FE484600F08AF8A8
:1033300000202FE78808002082B0CDE9000121F0AD
:10334000004001909DED000B02B051EC100B704756
:1033500010B52DED028BF0EE408AB0EE608AB0EE33
:10336000680AFEF7E1F9B0EE480AFEF7EFF9BDECA6
:10337000028B10BD2DE9F84380460F46002501243D
:103380000CE06006010E01236A46404600F011FD84
:10339000064616B97C55681CC5B2641C7F2CF0DB50
:1033A0002846BDE8F88300004FF4A060FDF78EFDCD
:1033B000A820FFF755FE4FF4E130FEF775FE4FF4FD
:1033C000E130FEF7F1FE1C48FEF7A8F9FDF7BEF963
:1033D000FDF78CF9FCF7A2FF0120FCF78DFFFDF74C
:1033E000D3FDFEF7C5F9FFF709F8FDF773F8FDF710
:1033F0007DFCFEF7E9FDFEF74DF8FDF709FD41F60E
:103400001F41A720FEF7D6FCFEF756FBFEF7ECFBAC
:10341000FEF79CFCDFED090A9FED080AFEF72EF887
:10342000DFED070A9FED060AFFF792FF4FF4967053
:10343000FFF734FE00BFFEE7A800002000000000F8
:103440000000B4427047000070B52DED0C8B8EB0BB
:1034500004460D461646B7EE000AF0EE409A9FED80
:103460007C0AB0EE408A9FED7A0AF0EE408A9FED2A
:10347000780AB0EE409A07A808A90DAB03AACDE9D7
:10348000001009A90BA8FFF771FE20B101200EB0B2
:10349000BDEC0C8B70BDBDF8200000F480700028DE
:1034A0007ED09DED030AB8EEC00ADFED6A0A80EE19
:1034B000201AF0EE419A9DED040AB8EEC00ADFED45
:1034C000650A80EE201AB0EE418A9DED050AB8EE3D
:1034D000C00ADFED600A80EE201AF0EE418A9DED11
:1034E000060AB8EEC00ADFED5B0A80EE201AB0EEE5
:1034F000419AB8EE000A28EE000A20EE090AF0EE22
:10350000000A69EEA00A00EEA80A10EE101A08469A
:1035100001F040FA41EC1C0BB0EE4C0AF0EE6C0AE4
:10352000FFF796F8B0EE40BAF0EE60BA9FED4A0BA6
:1035300053EC102B51EC1B0B00F036FF41EC1A0B37
:1035400000F07CFC2060B8EE000A28EE000A20EEB5
:10355000080AF0EE000A68EEA00A00EEE80AF7EEAC
:10356000000A30EE200A10EE101A084601F012FA96
:1035700041EC1C0BB0EE000A28EE800A20EE090A8E
:10358000F0EE000A69EEA00A00EE880A10EE101AAA
:10359000084601F0FFF941EC1D0BB0EE4C1A00E0BB
:1035A00052E0F0EE6C1AB0EE4D0AF0EE6D0AFFF745
:1035B0006BFBB0EE40BAF0EE60BA9FED270B53EC18
:1035C000102B51EC1B0B00F0EFFE41EC1A0B00F03E
:1035D00035FC286029EEA90A08EE080A08EEE80A78
:1035E00009EE490A10EE101A084601F0D3F941EC31
:1035F0001C0B28EE280A09EE890AF0EE000A20EEDC
:10360000200A10EE101A084601F0C4F941EC1D0B17
:10361000B0EE4C1AF0EE6C1AB0EE4D0AF0EE6D0AF8
:10362000FFF732FBB0EE40BAF0EE60BA9FED0A0B46
:1036300053EC102B51EC1B0B00F0B6FE41EC1A0BB7
:1036400000F0FCFB306001E0022020E700201EE7D4
:10365000000000000000804E6666666666A64C406C
:10366000F8B504460F4616462C4890F8240010B9C9
:103670004FF0FF30F8BD2948807A10B94FF0FF3085
:10368000F8E7264A1268917A244A526810786B4605
:103690000222FDF749FA10B14FF0FF30EAE79DF83A
:1036A00001009DF8001040EA0125A54203DA002040
:1036B0003070401EDEE7194840684088B5EB600F67
:1036C00017DD164A1268517C144A526810786B460E
:1036D0000122FDF729FA10B14FF0FF30CAE79DF83B
:1036E000000000F0100020B100F01AF86FF00100A7
:1036F000C0E7E2B2094B1B68D97A084B5B681878BF
:103700003B46FDF711FA10B14FF0FF30B2E795FBE1
:10371000F4F0401E30700020ACE700007000002084
:1037200008B57048807A10B94FF0FF3008BD00200E
:1037300000906C4A1268D17B6A4A526810786B46D6
:103740000122FDF72BFA10B14FF0FF30EEE7654A8A
:1037500012685179634A526810786B460122FDF76E
:103760001DFA10B14FF0FF30E0E75E4A12681179A0
:103770005C4A526810786B460122FDF70FFA10B1CF
:103780004FF0FF30D2E7574890F82400002853D07C
:103790000C200090534A12681179524A52681078EE
:1037A0006B460122FDF7FAF910B14FF0FF30BDE78B
:1037B0003220FFF773FCC02000904A48807A00F066
:1037C000010020B19DF8000040F020000090454A23
:1037D00012681179434A526810786B460122FDF74E
:1037E000DDF910B14FF0FF30A0E73E48407C10B14A
:1037F0000220009001E0002000903A4A1268D17B3C
:10380000384A526810786B460122FDF7C7F910B1AB
:103810004FF0FF308AE700200090324A1268517959
:10382000304A526810786B460122FDF7B7F900283C
:1038300055D04FF0FF3079E704200090294A1268F4
:103840001179284A526810786B460122FDF7A6F9D3
:1038500010B14FF0FF3069E72248807C20B9214841
:10386000807A00F0010010B94020009001E0602053
:1038700000901C4A126811791A4A526810786B46F7
:103880000122FDF78BF910B14FF0FF304EE73220E7
:10389000FFF704FC1348407C10B10120009001E0C8
:1038A000002000900F4A1268D17B0E4A52681078AF
:1038B0006B460122FDF772F910B14FF0FF3035E78A
:1038C000084A12685179074A52681078054B10333C
:1038D0000122FDF763F910B14FF0FF3026E7002019
:1038E00024E70000700000200146002901DD0A469F
:1038F00000E04A421046704710B50446E01C072815
:103900001FD2DFE800F08B7055A63A1F0400524822
:1039100090ED021BB0EE410AF0EE610A9FED4F1BE5
:1039200053EC112B51EC100B00F04AFF4A4AC2E94C
:1039300002019FED4C1B9FED4D0B02F10800FCF7BF
:1039400031FF86E0444890ED021BB0EE410AF0EEF4
:10395000610A9FED481B53EC112B51EC100B00F04A
:103960002FFF3D4AC2E902019FED441B9FED3D0B35
:1039700002F10800FCF716FF6BE0374890ED021BE0
:10398000B0EE410AF0EE610A9FED3E1B53EC112BA5
:1039900051EC100B00F014FF2F4AC2E902019FED19
:1039A0003B1B9FED360B02F10800FCF7FBFE50E0DD
:1039B000294890ED021BB0EE410AF0EE610A9FED3E
:1039C000311B53EC112B51EC100B00F069FA224A19
:1039D000C2E902019FED2F1B9FED300B02F10800A1
:1039E000FCF7E0FE35E01C4890ED021BB0EE410A0A
:1039F000F0EE610A9FED1F1B53EC112B51EC100BE5
:103A000000F04EFA144AC2E902019FED261B9FED19
:103A1000210B02F10800FCF7C5FE1AE00E4890EDFC
:103A2000021BB0EE410AF0EE610A9FED0C1B53EC55
:103A3000112B51EC100B00F033FA074AC2E90201D6
:103A40009FED1A1B9FED170B02F10800FCF7AAFE71
:103A500000BF00BF10BD0000780800207B14AE47F7
:103A6000E17A743F00000000000004C09A9999991F
:103A7000999909C0FCA9F1D24D62703F33333333B9
:103A80003333F3BFFA7E6ABC7493683F9A9999996D
:103A90009999D9BF333333333333F33F9A99999993
:103AA0009999D93F00000000000004409A99999923
:103AB0009999094070B504460D46224602210348F3
:103AC000FCF702FD0A20FFF705FB70BD0014024061
:103AD00070B505460948006820F0030007490860F2
:103AE00008460068086001210448FCF7E0FC044631
:103AF0000A20FFF7EFFA204670BD000000140240D4
:103B000070B504460D460A48006820F003000849D5
:103B100008600846006840F0010008602246012164
:103B20000348FCF7D1FC0A20FFF7D4FA70BD00006F
:103B30000014024073B52DED020B2DED028B0446EF
:103B40000D469FED180AB0EE408A02A9204600F00B
:103B50002BF8608900EE100AB8EE400A9DED021ABB
:103B6000C1EE000A2089E188401A00EE100AB8EE82
:103B7000C00A20EE800AB0EE408AE08800EE100A0B
:103B8000B8EE400A30EE080AB0EE408A2278BCEE69
:103B9000C80A10EE101A2846FEF7C2F9BDEC028BD7
:103BA0007FBD000000000000D1ED000AC28900EED8
:103BB000102AB8EE400AF4EEC00AF1EE10FA06DD63
:103BC000C28900EE102AB8EE400A81ED000AD1ED5C
:103BD000000A828900EE102AB8EE400AF4EEC00A0C
:103BE000F1EE10FA06D2828900EE102AB8EE400AF1
:103BF00081ED000A704700B52DED048B83B041ECD8
:103C0000190B00F011FD41EC180B18EE100A18EE1C
:103C1000901A8DED008B002818BF0120084320F07A
:103C20000040C0F17F6000F1E040C00F14D019EEF9
:103C3000101A19EE900A8DED009B002918BF012182
:103C4000084320F00040C0F17F6000F1E040C00F69
:103C500004BF0120FCF712FB51EC180B03B0BDECC4
:103C6000048B00BD70B5044601202268E1689047CE
:103C70000120D4E9022190476168E0688847054641
:103C80000020D4E902219047284670BD2DE9F0417B
:103C900004460F46002501202268E168904700266F
:103CA0000FE00120D4E9022190476806050E616803
:103CB000E068884705430020D4E902219047701C42
:103CC000C6B2082EEDDB3946204600F025F828461E
:103CD000BDE8F08110B5044601202268E1689047F4
:103CE0000120D4E90221904700202268E168904732
:103CF0000020D4E90221904710BD10B504460020F1
:103D00002268E16890470120D4E902219047012010
:103D10002268E168904710BD70B504460D462846FC
:103D20002268E16890470120D4E9022190470020F1
:103D3000D4E90221904770BD2DE9F04106460D46B9
:103D4000002408E08020204100EA05013046FFF70A
:103D5000E3FF601CC4B2082CF4DB3046FFF782FF9F
:103D600007463846BDE8F0812DE9F04707460C4686
:103D700015461E46DDF820803846FFF7ABFF21468A
:103D80003846FFF7D9FF8146B9F1000F05D0384614
:103D9000FFF7B3FF0120BDE8F08729463846FFF75B
:103DA000CBFF8146434632462146384600F001F8B3
:103DB000F1E72DE9F04780460E4615461F4640467E
:103DC000FFF788FF46F001014046FFF7B5FF814647
:103DD000B9F1000F05D04046FFF78FFF0120BDE885
:103DE000F087002406E000214046FFF74FFF2855EA
:103DF000601CC4B2781EA042F5DC01214046FFF7EA
:103E000045FF28554046FFF778FF0020E7E770B5EB
:103E100004460D4616460123324629462046FFF742
:103E2000C8FF70BD81F00041704780F000407047CE
:103E300021F00041704720F00040704721F000421F
:103E4000A2F16052B2F5801F01F0004328BFD2F109
:103E50007F6C0BD95FEA001C43EAC20242EB507050
:103E600018BF704728BF20F001007047B2F5801FCF
:103E7000BCBF184670474FEA410C1CF5001F02D228
:103E8000084600F0FDBD70B500F038FB0000008969
:103E9000FFF7F6BF4FF00040A0F58000704700002C
:103EA00010B591EA030F48BF83F0004300F19084FE
:103EB000841A71EB030C05D2121943EB0C03001B9F
:103EC00061EB0C01DFF824E14FEA1154A4EB135C21
:103ED0001EEA430F18BF9EEA445F73D023EA0E0325
:103EE000DCF1200E21EA045143F4801332D322FA8C
:103EF0000CFE10EB0E0023FA0CFE41EB0E01CCF190
:103F0000200E03FA0EFE10EB0E0051F10001B1F588
:103F1000801FCCF1200E32D201EB045112FA0EF2C6
:103F2000BDE8104058BF7047401C38BF5FEA4202EE
:103F300018BF7047002814BF20F0010041F10001B4
:103F40004FEA410313F5001F38BF7047A1F1C0418C
:103F500000F022BB012A43EB0302ACF1200CDCF1A0
:103F60001F0E32BF4FF0000E23FA0CF310EB0300CC
:103F700041EB0451B4EB115FD0D0A1EB045101F53A
:103F8000801149085FEA300001EB04510ED350F173
:103F9000000038BF12FA0EFE08D1BDE81040C9E794
:103FA000401C38BF5FEA4202CAD1C3E7BDE81040F7
:103FB0004FEA410313F5001F38BF7047A1F1C0411C
:103FC00000F0EABA9EEA445F08D011EA5E0FBDE84D
:103FD000104004BF01F0004100207047BDE81040D0
:103FE00070B500F08BFA00BF64FBBE3E0000E0FF3E
:103FF000491058BFC1F140415B1058BFC3F1404365
:104000008B42EFF3008070472DE9C04130B4DFF8F8
:10401000A0C23CEA111418BF3CEA131400F0EC8073
:1040200081EA03051CEA111444EAD57418BF1CEA9E
:10403000131500F0C780A4EB05044FF0004545EAD6
:10404000C12145EAC32341EA505143EA525304F1E6
:104050007F74994204F500344FEAC0204FEAC2222F
:1040600008BF904200F09C804FEA13650FF24016A3
:10407000765D4FEA134506FB05F7C7F1807706FB2F
:1040800007F74FEAD737A7FB03687642C8F58038B1
:10409000A7FB06CE38BFA8F1010807FB08E64FF0E2
:1040A000000EA6FB028CE6FB03CEDCF1000CCEF189
:1040B000004E38BFAEF1010EA6FB0C584FF00007C2
:1040C0004FF00005E6FB0E87A1FB08C6A0FB07CE5C
:1040D00016EB0E0645F10005E1FB076515F1E04E14
:1040E0007EBFA4F580345FEA46066D4116F1800775
:1040F00045F100054FEA17274FEA066647EA0567CC
:10410000A6F1DE46B6F1805F4FEA15251FD9384685
:1041100024F0010C05EBC471BCF1FE6F01EB0C1136
:1041200002D8F0BCBDE8008124425CBF01F5801ECE
:104130009EEAC47F02D4F0BCBDE80081244238D49A
:10414000F0BCA1F1C041BDE8004100F025BA4FEA42
:10415000D22242EA43524FEAD323A7FB02864FEA18
:10416000D02040EA415007FB03661EEA0E0F4FEADB
:10417000D12105FB026658BFA6EB0056B6EB0056F0
:104180004FEA520E4EEAC37E18EB0E0E56EB530E5C
:10419000BDD518EB02085E417F1C55F10005B6E75E
:1041A0004FF480154FF000074FF000064FF0000865
:1041B000ADE7F0BC4FF0000001F1C04101F000415B
:1041C000BDE8008111EA0C1F0CEA131500D00CE0C9
:1041D00013EA0C1F00F025804FF00000F0BC81EACC
:1041E000030101F00041BDE80081F0BCBDE80041E1
:1041F00081EA030100F0D0B9F0BCBDE8004170B520
:1042000000F07CF9097EFC3E00F007B881EA03016A
:104210004FF0000001F00041704781EA030100F017
:10422000BBB9F0BCBDE800414FF000002149704728
:10423000FFFDFBF9F7F5F4F2F0EEEDEBE9E8E6E46B
:10424000E3E1E0DEDDDBDAD8D7D5D4D3D1D0CFCDF2
:10425000CCCBCAC8C7C6C5C4C2C1C0BFBEBDBCBB2B
:10426000BAB9B8B7B6B5B4B3B2B1B0AFAEADACAB26
:10427000AAA9A8A8A7A6A5A4A3A3A2A1A09F9F9E00
:104280009D9C9C9B9A9999989797969595949393B2
:10429000929191908F8F8E8E8D8C8C8B8B8A898949
:1042A00088888787868585848483838282818180CC
:1042B0000000FF070000F87F51EA030C17D41CF53B
:1042C000801F58BFBCF5801F00F10680994218BFBF
:1042D000704708BF9042704707D711F5801F58BF3D
:1042E00013F5801F19D499427047894270471CF515
:1042F000801F08D5BCF5801FF7D58B4218BF7047CB
:1043000008BF824270474FF4001C1CEB410F38BFBE
:104310001CEB430F01D28B42704770B500F0EEF8F2
:10432000922449004FF000514FF08053FFF760BED8
:1043300051EA030C17D41CF5801F58BFBCF5801F31
:1043400000F10680994218BF704708BF904270473D
:1043500007D711F5801F58BF13F5801F19D4994254
:104360007047894270471CF5801F08D5BCF5801F37
:10437000F7D58B4218BF704708BF824270474FF491
:10438000001C1CEB410F38BF1CEB430F01D28B42CA
:10439000704770B500F0B2F8922449004FF0005118
:1043A0004FF08053FFF724BEDFF848C170B51CEA18
:1043B000111E1EBF1CEA13159EEA0C0F95EA0C0F86
:1043C00000F06F8081EA030423EA4C134EEAD47EA6
:1043D00021EA4C1141F4801143F48013AE44A1FB57
:1043E000024CA0FB0365AEF17F7E361955EB0C0540
:1043F000A1FB034C4CF10003A0FB021C16EB0C06C6
:10440000654153F10003094218BF46F0010613F459
:10441000007F0BD14FEA03314FEA0530340341EA04
:10442000155140EA16506FF003020AE04FEAC3212B
:104430004FEAC520F40241EA555140EA56506FF068
:10444000020202EB2E4201EB025585EACE710AD040
:104450005FEA440C18BF24F0004450F1000041F121
:10446000000120EAD47040F2FE7C624500D270BDAB
:10447000A84214BF4FF080444FF04044002E08BFC4
:104480000024BEF1806FA8BFA1F1C041BDE870401B
:1044900080F282804FF0000001F1C04101F0004144
:1044A00070479EEA0C0F0CEA131518BF95EA0C0F23
:1044B00006D04FF0000081EA030E0EF0004170BDFF
:1044C00000F01CF88900013E00F007B800F009B8C0
:1044D0004FEA430C5FEA5C5C08D081EA030100F01C
:1044E0005BB84FEA410C5FEA5C5CF6D14FF000002C
:1044F000014970470000FF070000F87F0EF1020E2F
:104500002EF0030E5EF8046B364205D4012A43EB0D
:10451000030515F5001F12D8012841EB010C1CF50D
:10452000001F0CD80ED14FEAD17C15F5001F0CEB03
:104530004C0C0CF1020C08BF4CEBD37C04E04FF0A8
:10454000080C01E04FEAD37C0CEB4C0526FA05F68B
:1045500006F00706B6F1040C06D20EEB860CBDE899
:1045600070404CF0010C6047DFE80CF0090B0202D0
:104570004FF000414FF00000A1F5002170BD194639
:104580001046012851EB010418BFD4F5001484BF74
:10459000002001F0004170BD0808A0F500114FEAAD
:1045A0003101704753EA010C17D41CF5801F58BF26
:1045B000BCF5801F00F106808B4218BF704708BF12
:1045C0008242704707D713F5801F58BF11F5801F2F
:1045D00019D48B4270479B4270471CF5801F08D549
:1045E000BCF5801FF7D5994218BF704708BF9042AD
:1045F00070474FF4001C1CEB430F38BF1CEB410FFE
:1046000001D2994270470FB40CBC03BCFFF7C1BE86
:1046100091EA030F10B581F000413FF549AC83F0FA
:10462000004300F0D5B800002DE9F04101F5801CF1
:10463000BCF5001FC0F2A9804FEA115C21EA0C51C1
:104640000CF1FD0C41F480115FEA5C0C0CF5C07CB0
:1046500001D34000494130A4890241EA90518702C8
:104660008E0E0A0CA45D04FB04F602FB06F6C6F1EE
:104670004046A4FB0662F60D46EA422606FB06F417
:10468000A4FB01235242C3F1404338BF5B1EA6FB8B
:1046900002420024E6FB0324D20B42EA4446A6FB76
:1046A0000623A1FB02E2A3FB07E4E3FB61426442B1
:1046B000C2F1404E38BFAEF1010EA6FB04234FF00D
:1046C0000002E6FB0E32A2FB03463400E2FB62640A
:1046D000A1FB06E6A4FB07E8E4FB61687642C8F1AB
:1046E000405838BFA8F10108A2FB06E4A3FB08E587
:1046F000E2FB6854A1FB05E6A7FB04E8E1FB648646
:1047000018F1200556F10006A809A8F11B08B10907
:1047100008F03F08B8F10A0F40EA86601CD901EBA7
:104720000C51BDE8F08100BFFCF5EEE8E2DDD8D326
:10473000CFCBC7C3C0BDB9B6B4B1AEACA9A7A5A312
:10474000A19F9D9B9A9896959392908F8D8C8B8923
:104750008887868584838281A0FB006800FB01F244
:1047600008EB4208B8EB872807D5341858EB01044A
:10477000D5D5401C51F10001D1E7341A78EB010482
:10478000CDD4401E71F10001C9E75FEA4C0C5FEA2D
:104790009C5C0DD105D34FF0000001F00041BDE855
:1047A000F081BDE8F04170B5FFF7A8FE6DDBFFBEFC
:1047B000BDE8F0414FF00000004970470000F87F6D
:1047C00010B591EA030F48BF83F000433FF570AB8B
:1047D000841A71EB030C07D212198CF0004C43EBD6
:1047E0000C03001B61EB0C01DFF8A4E14FEA11544C
:1047F000A4EB135C1EEA430F18BF9EEA445F00F06F
:10480000B08023EA6E03524221EA0451C3EB6E03E7
:1048100038BF5B1EDCF1200E25D322FA0CFE10EB14
:104820000E0043FA0CFE41EB0E01CCF1200E03FA10
:104830000EFE10EB0E0051F10001CCF1200E29D438
:1048400012FA0EF201EB0451BDE8104058BF704758
:10485000401C1CBFB2F1004F704700280CBF491C20
:1048600020F00100704712EB020E43EB030218BF69
:104870004FF0010E4EEA4202ACF1200CDCF11E0EAC
:1048800054D943FA0CFE10EB0E0051F1FF31CCF17C
:104890001E0ED5D50EF1010E12FA0EFE404141EB6F
:1048A000010101EB445C5FEA5C5C10D910EBDE7047
:1048B00001EB045138BFBEF1004FBDE8104018BFF6
:1048C000704700280CBF491C20F00100704730D20F
:1048D0004FEAD42C11F5001124F400641BD0B1FA76
:1048E00081F20B3AA41AA41ED2F12003914030FAAF
:1048F00003F31943904001EBCC71002C01EB045100
:10490000BDE81040A8BF704701F1C0414FF0000062
:1049100001F000417047B0FA80F310FA03F100D1C2
:1049200010BDE41A173C4805C90AE4E701EB04513D
:1049300010BD491001EB0451BDE810404FEA3000B2
:1049400002E04FF0000170474A0008BF0042F8D073
:10495000B2F5001F28BF704701F000414FF0000082
:1049600070479EEA445F07D011EA5E0FBDE8104031
:1049700004BF002100207047BDE8104070B5FFF76C
:10498000BDFD00BF40DFF63E83F00041104670479A
:104990000000E0FF43004FEAD30C4FEA3C0C4340D9
:1049A0001FBF40070CF1605113F0FE4F70471CF021
:1049B000006F03D100200CF0004170470CF0004361
:1049C00043EA507010B540EACC0000F00EF800BF8A
:1049D000000000924FEA0001FFF7DEBD4FF00041FA
:1049E0004FF00000A1F5002170470EF1020E2EF0ED
:1049F000030E5EF8044B244204D44FEA4102B2F1A4
:104A00007F4F11D84FEA4003B3F17F4F0CD80ED13E
:104A10004FEAD07CB2F17F4F0CEB4C0C0CF1020C46
:104A200008BF4CEBD17C04E04FF0080C01E04FEAEA
:104A3000D17C0CEB4C0324FA03F404F00704B4F12A
:104A4000040C06D20EEB840CBDE810404CF0010CB7
:104A50006047DFE80CF0070802024FF00040A0F5C5
:104A6000800010BD0846420018BFD2F1807288BF96
:104A700000F0004010BD4FF04070E1EE100A7047AA
:104A8000FF2141EAD050C00570470000000000003F
:104A90000000002F000000000700070000147F1432
:104AA0007F1400242A7F2A12006264081323003630
:104AB0004955225000000503000000001C2241005F
:104AC000000041221C000014083E08140008083EA3
:104AD0000808000000A0600000080808080800009E
:104AE00060600000002010080402003E5149453E6D
:104AF0000000427F4000004261514946002141458B
:104B00004B31001814127F10002745454539003CF1
:104B10004A494930000171090503003649494936BF
:104B200000064949291E00003636000000005636AE
:104B30000000000814224100001414141414000092
:104B40004122140800020151090600324959513E20
:104B5000007C1211127C007F49494936003E4141D8
:104B60004122007F4141221C007F49494941007F89
:104B700009090901003E4149497A007F0808087F78
:104B80000000417F4100002040413F01007F0814A8
:104B90002241007F40404040007F020C027F007FA6
:104BA0000408107F003E4141413E007F090909068B
:104BB000003E4151215E007F0919294600464949BE
:104BC00049310001017F0101003F4040403F001F8B
:104BD0002040201F003F4038403F0063140814630A
:104BE00000070870080700615149454300007F41F4
:104BF000410000552A552A55000041417F0000041C
:104C00000201020400404040404000000102040054
:104C1000002054545478007F4844443800384444B9
:104C2000442000384444487F003854545418000845
:104C30007E0901020018A4A4A47C007F0804047863
:104C40000000447D4000004080847D00007F1028EB
:104C500044000000417F4000007C04180478007C80
:104C60000804047800384444443800FC2424241800
:104C70000018242418FC007C08040408004854543C
:104C8000542000043F444020003C4040207C001C55
:104C90002040201C003C4030403C00442810284468
:104CA000001CA0A0A07C004464544C4414141414B0
:104CB00014140000000000000000000000000000CC
:104CC000FC000000000002000000000C020C0200CA
:104CD00000000000000090D0BCD0BC900003000396
:104CE00000001824FE448C0003020702010018246F
:104CF000D8B04C80000300010201C038E438E00065
:104D0000010202010202080600000000000000008B
:104D10000000000000F8040200000001020400028C
:104D200004F800000004020100009060F8609000A8
:104D30000000010000002020FC20200000000100F5
:104D40000000000000000000080600000000202015
:104D500020202000000000000000000000000000F3
:104D60000002000000000080601C0200040300003C
:104D70000000F8040404F800010202020100000827
:104D8000FC00000000020302000018844424180004
:104D900003020202020008042424D80001020202D5
:104DA000010040B088FC80000000000302003C24A9
:104DB0002424C400010202020100F824242CC000B3
:104DC0000102020201000C04E41C040000000300C4
:104DD0000000D8242424D800010202020100384433
:104DE0004444F8000003020201000000100000002B
:104DF000000002000000000020000000000006008B
:104E00000000002050880402000000000102909081
:104E100090909000000000000000000204885020E4
:104E20000002010000001804C42418000000020061
:104E30000000F804E494F80001020202020000E01D
:104E40009CF0800002030000030204FC2424D8002C
:104E5000020302020100F80404040C000102020231
:104E6000010004FC0404F80002030202010004FC37
:104E700024740C0002030202030004FC24740C00DE
:104E8000020302000000F0080444CC4000010202CA
:104E9000010004FC2020FC040203000003020404BF
:104EA000FC040400020203020200000404FC0404E7
:104EB00006040403000004FC24D00C0402030200D6
:104EC000030204FC04000000020302020203FC3C93
:104ED000C03CFC0003000300030004FC30C4FC04DD
:104EE000020302000300F8040404F80001020202B5
:104EF000010004FC24241800020302000000F884CE
:104F00008404F80001020207050004FC24649800F0
:104F1000020302000302182424448C00030202024C
:104F200001000C04FC040C0000020302000004FC5D
:104F30000000FC04000102020100047C80E01C046B
:104F40000000030000001CE03CE01C000003000324
:104F50000000049C609C0400020300030200041C87
:104F6000E01C04000002030200000C84641C040026
:104F70000203020203000000FE0202000000070418
:104F80000400000E30C0000000000001020000021A
:104F900002FE0000000404070000000402040000F8
:104FA00000000000000000000000000008080808E1
:104FB000080800000200000000000000000000409F
:104FC000A0A0C00000010202030204FC2020C000D7
:104FD00000030202010000C0202060000001020264
:104FE000020000C02024FC0000010202030200C0F5
:104FF000A0A0C0000001020202000020F824240446
:105000000002030202000040A0A0602000070A0A7C
:105010000A0404FC2020C000020302000302002056
:10502000E4000000000203020000000020E4000091
:1050300008080807000004FC80E0202002030200AA
:1050400003020404FC000000020203020200E0204C
:10505000E020C00003000300030020E02020C00087
:1050600002030200030200C02020C000000102026F
:10507000010020E02020C000080F0A02010000C04B
:105080002020E0000001020A0F0820E0402020005C
:105090000203020000000060A0A020000002020243
:1050A00003000020F820000000000102020020E0C0
:1050B0000020E00000010202030220E020806020C6
:1050C0000000030100006080E08060000003000336
:1050D000000020608060200002030003020020E046
:1050E000208060200808070100000020A060200048
:1050F000000203020200000020DE020000000007A0
:105100000400000000FF00000000000F000000028B
:10511000DE20000000040700000002010204040277
:10512000000000000000000000000000000000007F
:10513000000000000000000000F800000000000077
:1051400000333000000000100C06100C06000000B8
:1051500000000000000040C07840C0784000043FDC
:1051600004043F040400007088FC083000000018AC
:1051700020FF211E0000F008F000E01800000021D0
:105180001C031E211E0000F00888700000001E2174
:1051900023241927211010160E0000000000000023
:1051A000000000000000000000E018040200000001
:1051B00000071820400000020418E0000000004032
:1051C000201807000000404080F0804040000202AC
:1051D000010F01020200000000F0000000000101C8
:1051E000011F01010100000000000000000080B06C
:1051F000700000000000000000000000000000013E
:105200000101010101010000000000000000003068
:105210003000000000000000000080601804006002
:1052200018060100000000E010080810E000000F60
:10523000102020100F00001010F8000000000020C7
:10524000203F20200000007008080888700000300F
:1052500028242221300000300888884830000018B7
:10526000202020110E000000C02010F800000007D0
:105270000424243F240000F8088888080800001946
:10528000212020110E0000E0108888180000000F77
:10529000112020110E0000380808C838080000004E
:1052A000003F000000000070880808887000001CA3
:1052B000222121221C0000E010080810E00000005C
:1052C000312222110F00000000C0C00000000000C9
:1052D00000303000000000000080000000000000EE
:1052E00080600000000000008040201008000001E5
:1052F00002040810200040404040404040000404A8
:105300000404040404000008102040800000002071
:10531000100804020100007048080808F0000000AE
:10532000003036010000C030C828E810E00007183F
:10533000272423140B000000C038E0000000203CAC
:1053400023020227382008F8888888700000203F50
:10535000202020110E00C030080808083800071867
:1053600020202010080008F808080810E000203F5E
:10537000202020100F0008F88888E8081000203F3F
:1053800020202320180008F88888E8081000203F13
:10539000200003000000C03008080838000007188B
:1053A0002020221E020008F808000008F808203F0C
:1053B000210101213F20000808F808080000002012
:1053C000203F2020000000000808F8080800C080E6
:1053D00080807F00000008F888C028180800203F5F
:1053E00020012638200008F8080000000000203FB7
:1053F00020202020300008F8F800F8F80800203FAE
:10540000003F003F200008F830C00008F808203FA7
:10541000200007183F00E01008080810E0000F10F7
:10542000202020100F0008F808080808F000203F8E
:10543000210101010000E01008080810E0000F1829
:10544000242438504F0008F8888888887000203F4E
:105450002000030C3020007088080808380000384D
:10546000202121221C00180808F808081800000054
:10547000203F2000000008F808000008F808001F7E
:10548000202020201F000878880000C8380800006D
:1054900007380E010000F80800F80008F800033C87
:1054A0000700073C0300081868808068180820304F
:1054B0002C03032C30200838C800C838080000002E
:1054C000203F2000000010080808C83808002038D5
:1054D000262120201800000000FE02020200000029
:1054E000007F40404000000C30C000000000000081
:1054F00000010638C00000020202FE000000004069
:1055000040407F000000000004020202040000008E
:10551000000000000000000000000000000080808B
:105520008080808080800002020400000000000073
:105530000000000000000000808080800000001952
:10554000242222223F2008F8008080000000003F33
:10555000112020110E000000008080800000000E4D
:10556000112020201100000000808088F800000E2B
:10557000112020103F200000808080800000001F4C
:10558000222222221300008080F0888888180020C0
:10559000203F202000000000808080808000006B81
:1055A00094949493600008F8008080800000203F6D
:1055B000210000203F20008098980000000000207B
:1055C000203F20200000000000809898000000C0CC
:1055D0008080807F000008F8000080808000203FED
:1055E00024022D302000000808F8000000000020F0
:1055F000203F202000008080808080808000203F2D
:1056000020003F20003F8080008080800000203FFD
:10561000210000203F200000808080800000001FCB
:10562000202020201F00808000808000000080FF5C
:10563000A12020110E000000008080808000000E5C
:10564000112020A0FF8080808000808080002020AA
:105650003F21200001000000808080808000003316
:10566000242424241900008080E0808000000000B1
:10567000001F202000008080000000808000001FAC
:10568000202020103F20808080000080808000014A
:105690000E300806010080800080008080800F307E
:1056A0000C030C300F000080800080808000002000
:1056B000312E0E312000808080000080808080812B
:1056C0008E7018060100008080808080800000219C
:1056D000302C2221300000000000807C02020000FB
:1056E0000000003F404000000000FF0000000000FC
:1056F0000000FF0000000002027C8000000000406B
:10570000403F000000000006010102020404000006
:105710000000000000000000000000000000000089
:105720000000000000000000000000000000000079
:10573000000000000000000000000000000000F079
:10574000F0F0000000000000000000017F010000F8
:10575000000000000000001C1C1C000000000000F5
:105760008060301C8C60301C0C00000000000000C9
:105770000000000000000000000000000000000029
:105780000000000000E00000000000E000000086D3
:10579000E69F86868686E69F860000011F0101013E
:1057A00001011F010100000080C06020F820E0C05E
:1057B0000000000003070C18FF70E18100000000EA
:1057C000070F10107F100F0700008060206080001E
:1057D0000000E02000000F3020309F70DC371030D8
:1057E000C0000000100E030007181018070000008A
:1057F000C02020E0C0000000000080E01F38E887E3
:1058000003C43C040000070F1810100B070D101004
:10581000080000808C4C38000000000000000000F0
:105820000000000000000000000000000000000078
:1058300000000000000000000000000080E03008D0
:1058400004000000000000FEFF0100000000000056
:1058500000000000030F1820400000040830E08022
:105860000000000000000000000001FFFE0000003A
:105870000000004020180F0300000000000000009E
:1058800000000000C00000000000004266663C18F6
:10589000FF183C66664200000000000003000000A4
:1058A0000000000000000000800000000000001068
:1058B00010101010FF101010101000000000000059
:1058C00003000000000000000000000000000000D5
:1058D0000000000000000000000000000000008048
:1058E0008C4C3800000000000000000000000000A8
:1058F0000000000000000010101010101010101018
:105900001000000000000000000000000000000087
:105910000000000000000000000000000000000087
:1059200000000000000000001C1C1C000000000023
:1059300000000000000000000000E0380C00000043
:10594000000080701C03000000000060380E0100A1
:10595000000000000000000080C060202060C080C7
:10596000000000FEFF010000000001FFFE0000013A
:10597000070E181010180E0701000000808080C06C
:10598000E000000000000000000000FFFF00000039
:10599000000000001010101F1F10101000000080E9
:1059A000402020202060C0800000000303008040D1
:1059B00020381F070000001C1A1918181818181F83
:1059C00000000080C020202060C080000000000394
:1059D00003001010182FE780000000070F101010B0
:1059E00010180F070000000000000000C0E0F000E9
:1059F000000000C0B088868180FFFF80800000002A
:105A000000000010101F1F1010000000E060606018
:105A100060606060000000003F1008080818F0E0B7
:105A2000000000070B101010101C0F0300000000F6
:105A300080C040202020E0C0000000FCFF211008B2
:105A4000080818F0E0000001070C18101010080FEB
:105A500003000000C0E06060606060E06000000083
:105A600003000000E0180700000000000000001F15
:105A70001F00000000000080C0602020202060C0C7
:105A800080000087EF2C1818303068CF83000007A3
:105A90000F0810101010180F07000000C0C02020C1
:105AA0002020C0800000001F3F604040402010FFC9
:105AB000FE0000000C1C101010080F030000000076
:105AC0000000000000000000000000000000000EC8
:105AD0000E0E0000000000000000001C1C1C000056
